:100000000C9446000C9465000C9465000C946500FB
:100010000C9465000C9465000C9465000C946500CC
:100020000C9465000C9465000C9465000C946500BC
:100030000C9465000C94A3000C9465000C9465006E
:100040000C9465000C9465000C9465000C9465009C
:100050000C9465000C9465000C9465000C9465008C
:100060000C9465000C9465000C9465000C9465007C
:100070000C9465000C9465000C9465000C9465006C
:100080000C9465000C9465000C94650011241FBE4F
:10009000CFEFD0E4DEBFCDBF11E0A0E0B1E0EEE8ED
:1000A000F3E000E00BBF02C007900D92A231B10750
:1000B000D9F721E0A2E1B1E001C01D92AB31B20756
:1000C000E1F70E949F010C94C5010C940000CF93AE
:1000D000C82F8A3019F48DE00E9467008091C0001B
:1000E00085FFFCCFC093C60080E090E0CF910895DB
:1000F0008BE0809381008DE790E09093890080935E
:10010000880082E080936F00109285001092840036
:100110008091000190910101A0910201B091030131
:100120008093120190931301A0931401B0931501D1
:100130008FB780688FBF089510928100089581E085
:100140008093160108951F920F920FB60F921124FB
:100150000BB60F922F933F934F935F936F937F93C1
:100160008F939F93AF93BF93EF93FF93809112016F
:1001700090911301A0911401B09115010197A1096B
:10018000B1098093120190931301A0931401B093CD
:100190001501892B8A2B8B2B91F40E949F00809153
:1001A000000190910101A0910201B091030180939F
:1001B000120190931301A0931401B0931501FF91C4
:1001C000EF91BF91AF919F918F917F916F915F91CF
:1001D0004F913F912F910F900BBE0F900FBE0F903C
:1001E0001F901895609300017093010180930201A4
:1001F0009093030160931201709313018093140193
:100200009093150108958091180190911901823001
:100210009105C1F128F4009759F0019799F075C044
:100220008330910509F44DC0049709F45CC06DC09A
:1002300081E080931A0181E090E09093190180930E
:10024000180167C080911701813039F483E090E094
:1002500090931901809318015CC080911A01843039
:1002600038F481E090E0909319018093180151C017
:10027000843008F44EC082E090E09093190180939E
:10028000180147C080911701813039F483E090E074
:1002900090931901809318013CC080911A0182301B
:1002A00038F082E090E0909319018093180131C0FA
:1002B000823078F581E090E09093190180931801E5
:1002C00028C080911701813039F084E090E090934C
:1002D0001901809318011DC083E090E090931901EB
:1002E0008093180116C080911701882339F081E0AE
:1002F00090E090931901809318010BC084E090E086
:10030000909319018093180104C010921901109262
:10031000180180911801909119018130910519F00F
:10032000029739F0089580911A01880F80931A017D
:10033000089580911A01869580931A01089511B845
:100340008FEF82B984B915B8109219011092180173
:1003500081E080931A016CE271E080E090E00E94FD
:10036000F2000E94780090B181E08927817080932B
:1003700017010E94030180911A0185B9809116012D
:0E0380008823E1F310921601EECFF894FFCF20
:10038E0001000000000000020000000067000000F5
:02039E0000005D
:00000001FF
