:100000000C944D000C946C000C946C000C946C00DF
:100010000C946C000C946C000C946C000C946C00B0
:100020000C946C000C946C000C946C000C946C00A0
:100030000C946C000C94AA000C946C000C946C0052
:100040000C946C000C946C000C946C000C946C0080
:100050000C946C000C946C000C946C000C946C0070
:100060000C946C000C946C000C946C000C946C0060
:100070000C946C000C946C000C946C000C946C0050
:100080000C946C000C946C000C946C0016011D0117
:100090002401440163017501870111241FBECFEFC4
:1000A000D0E4DEBFCDBF11E0A0E0B1E0EEECF3E0C4
:1000B00000E00BBF02C007900D92A231B107D9F743
:1000C00021E0A2E1B1E001C01D92AC31B207E1F73D
:1000D0000E94B7010C94E5010C940000CF93C82F47
:1000E0008A3019F48DE00E946E008091C00085FF77
:1000F000FCCFC093C60080E090E0CF9108958BE0E4
:10010000809381008DE790E0909389008093880030
:1001100082E080936F00109285001092840080919D
:10012000000190910101A0910201B091030180931F
:10013000120190931301A0931401B09315018FB78E
:1001400080688FBF089510928100089581E08093A8
:10015000160108951F920F920FB60F9211240BB63D
:100160000F922F933F934F935F936F937F938F9350
:100170009F93AF93BF93EF93FF9380911201909160
:100180001301A0911401B09115010197A109B109C2
:100190008093120190931301A0931401B093150161
:1001A000892B8A2B8B2B91F40E94A6008091000151
:1001B00090910101A0910201B0910301809312017D
:1001C00090931301A0931401B0931501FF91EF9147
:1001D000BF91AF919F918F917F916F915F914F915F
:1001E0003F912F910F900BBE0F900FBE0F901F905D
:1001F0001895609300017093010180930201909320
:100200000301609312017093130180931401909382
:1002100015010895E0911801F0911901E730F105F9
:1002200008F07CC0EA5BFF4F0C94DC0181E090E0B9
:10023000909319018093180175C082E090E090932B
:100240001901809318016EC080911701813039F433
:1002500084E090E0909319018093180163C080912D
:100260001A01843038F482E090E090931901809371
:10027000180158C0843008F455C083E090E0909392
:100280001901809318014EC080911701813039F413
:1002900084E090E0909319018093180143C080910D
:1002A0001A01823038F083E090E090931901809336
:1002B000180138C08230B0F582E090E090931901C7
:1002C000809318012FC080911701813039F085E0AB
:1002D00090E0909319018093180124C084E090E08D
:1002E00090931901809318011DC0809117018130EE
:1002F00039F481E090E0909319018093180112C0C5
:1003000085E090E090931901809318010BC081E083
:1003100090E0909319018093180104C01092190184
:100320001092180180911801909119018230910565
:1003300071F018F4019739F008958330910569F050
:10034000069789F0089581E080931A0108958091BD
:100350001A01880F80931A01089580911A018695D9
:1003600080931A01089581E080931A01089511B8CD
:100370008FEF82B984B915B8109219011092180143
:1003800010921A016CE271E080E090E00E94F900A6
:100390000E947F0090B181E08927817080931701CE
:1003A0000E940A0180911A0185B980911601882363
:1003B000E1F310921601EECFEE0FFF1F0024001C98
:0E03C0000BBE0790F691E02D0994F894FFCF44
:1003CE000100000000000002000000006E000000AE
:0203DE0000001D
:00000001FF
