:100000000C9446000C9465000C9465000C946500FB
:100010000C9465000C9465000C9465000C946500CC
:100020000C9465000C9465000C9465000C946500BC
:100030000C9465000C94B4000C9465000C9465005D
:100040000C9465000C9465000C9465000C9465009C
:100050000C9465000C9465000C9465000C9465008C
:100060000C9465000C9465000C9465000C9465007C
:100070000C9465000C9465000C9465000C9465006C
:100080000C9465000C9465000C94650011241FBE4F
:10009000CFEFD0E4DEBFCDBF11E0A0E0B1E0E6E9F4
:1000A000F4E000E00BBF02C007900D92A231B1074F
:1000B000D9F721E0A2E1B1E001C01D92A932B20757
:1000C000E1F70E9419020C9449020C940000CF93AE
:1000D000C82F8A3019F48DE00E9467008091C0001B
:1000E00085FFFCCFC093C60080E090E0CF910895DB
:1000F00060930001709301018093020190930301CA
:100100006093120170931301809314019093150171
:1001100008958BE0809381008DE790E090938900B3
:100120008093880082E080936F0010928500109287
:1001300084008091000190910101A0910201B09191
:1001400003018093120190931301A0931401B093C3
:1001500015018FB780688FBF0895109281000895B0
:1001600081E08093160108951F920F920FB60F92AF
:1001700011240BB60F922F933F934F935F936F937E
:100180007F938F939F93AF93BF93EF93FF93809150
:10019000120190911301A0911401B09115010197E2
:1001A000A109B1098093120190931301A093140146
:1001B000B0931501892B8A2B8B2B91F40E94B000F0
:1001C0008091000190910101A0910201B091030181
:1001D0008093120190931301A0931401B093150121
:1001E000FF91EF91BF91AF919F918F917F916F910F
:1001F0005F914F913F912F910F900BBE0F900FBECB
:100200000F901F90189580912001909121018130CD
:10021000910569F018F0029711F139C081E090E082
:10022000909321018093200110921B0134C0909182
:100230001B0180911A01981748F082E090E090939A
:1002400021018093200110921B0125C0981718F5F9
:1002500081E090E090932101809320011CC0909157
:100260001B0180911901981748F081E090E090936C
:1002700021018093200110921B010DC0981758F4A2
:1002800082E090E0909321018093200104C01092BD
:100290002101109220018091200190912101813053
:1002A000910569F018F0029799F0089510922801CD
:1002B00081E080931A0189E080931901089581E01B
:1002C0008093280180911B018F5F80931B0108950B
:1002D0001092280180911B018F5F80931B0108956C
:1002E00080912401909125018130910569F018F0E9
:1002F0000297F1F03CC010921B0181E090E09093D6
:1003000025018093240137C080911801882349F08A
:1003100082E090E0909325018093240110921B01CC
:100320002AC081E090E0909325018093240123C0AE
:1003300080911801882339F082E090E090932501A4
:100340008093240109C0811107C080911B018A306C
:1003500018F48F5F80931B0180911B018A3058F045
:1003600081E090E0909325018093240104C01092D5
:100370002501109224018091240190912501813062
:10038000910539F018F0029771F0089510921E014E
:10039000089580B18095887F8093180110921F0185
:1003A00010921E01089581E080931F018091180131
:1003B00080931E0108950895809122019091230158
:1003C000892B21F01092230110922201089580912F
:1003D0001C0190911D01009719F0019741F00EC08A
:1003E00081E090E090931D0180931C010BC081E09F
:1003F00090E090931D0180931C0104C010921D0198
:1004000010921C0180911C0190911D01019769F4CB
:1004100080911F0190E0880F991F90911E01892BF8
:1004200090912801892B809317018091170185B93C
:10043000089511B88FEF82B984B915B864E670E0F9
:1004400080E090E00E9478000E94890010922101D3
:100450001092200110922501109224011092270180
:1004600010922601109223011092220110921D0178
:1004700010921C010E9403010E9470010E94DC0185
:100480000E94E701809116018823E1F31092160182
:06049000F1CFF894FFCF4C
:1004960001000000000000020000000067000000EC
:0204A600000054
:00000001FF
