:100000000C9446000C945D000C945D000C945D0013
:100010000C945D000C945D000C945D000C945D00EC
:100020000C945D000C945D000C945D000C945D00DC
:100030000C945D000C945D000C945D000C945D00CC
:100040000C945D000C945D000C945D000C945D00BC
:100050000C945D000C945D000C945D000C945D00AC
:100060000C945D000C945D000C945D000C945D009C
:100070000C945D000C945D000C945D000C945D008C
:100080000C945D000C945D000C945D0011241FBE67
:10009000CFEFD0E4DEBFCDBF11E0A0E0B1E0E6E4F9
:1000A000F1E000E00BBF02C007900D92AE30B10747
:1000B000D9F70E9470000C94A1000C940000CF931B
:1000C000C82F8A3019F48DE00E945F008091C00033
:1000D00085FFFCCFC093C60080E090E0CF910895EB
:1000E00011B88FEF82B987B918B880B180958F7039
:1000F000853048F49FEF980F9230B0F083508230F3
:10010000A8F080E41CC09BEF980F923088F099EF24
:10011000980F933078F096EF980F933068F08D50E9
:10012000833060F080E00BC080E609C080E707C044
:1001300088E305C08CE303C08EE301C08FE388B978
:06014000D4CFF894FFCFBC
:0E01460000000002000000005F00000000004A
:00000001FF
