:100000000C9446000C9465000C9465000C946500FB
:100010000C9465000C9465000C9465000C946500CC
:100020000C9465000C9465000C9465000C946500BC
:100030000C9465000C9465000C9465000C946500AC
:100040000C9465000C9465000C9465000C9465009C
:100050000C9465000C9465000C9465000C9465008C
:100060000C9465000C9465000C9465000C9465007C
:100070000C9465000C9465000C9465000C9465006C
:100080000C9465000C9465000C94650011241FBE4F
:10009000CFEFD0E4DEBFCDBF11E0A0E0B1E0E2E100
:1000A000F2E000E00BBF02C007900D92AE30B10746
:1000B000D9F721E0AEE0B1E001C01D92A331B20753
:1000C000E1F70E94F0000C9407010C940000CF931C
:1000D000C82F8A3019F48DE00E9467008091C0001B
:1000E00085FFFCCFC093C60080E090E0CF910895DB
:1000F00080910F01909110018130910571F030F0E5
:1001000082309105E1F00397A9F14FC081E090E0C2
:100110009093100180930F014CC080910E018130AB
:1001200039F482E090E09093100180930F0141C078
:1001300081E090E09093100180930F013AC080918C
:100140000E01813039F482E090E0909310018093A9
:100150000F012FC0811107C083E090E09093100140
:1001600080930F0126C082E090E09093100180936D
:100170000F011FC080910E01813039F482E090E0C0
:100180009093100180930F0114C0811107C083E088
:1001900090E09093100180930F010BC083E090E0FA
:1001A0009093100180930F0104C0109210011092DF
:1001B0000F0180910F01909110018230910541F063
:1001C0008330910549F0019751F41092110108957F
:1001D00085E18093110108958AE2809311010895C9
:1001E00011B88FEF82B984B915B81092100110922E
:1001F0000F011092110190B181E0892781708093E5
:100200000E010E9478008091110185B9F4CFF89415
:02021000FFCF1E
:0E021200000000020000000067000000000075
:00000001FF
