:100000000C9446000C9465000C9465000C946500FB
:100010000C9465000C9465000C9465000C946500CC
:100020000C9465000C9465000C9465000C946500BC
:100030000C9465000C9488010C9465000C94650088
:100040000C9465000C9465000C9465000C9465009C
:100050000C9465000C9465000C9465000C9465008C
:100060000C9465000C9465000C9465000C9465007C
:100070000C9465000C9465000C9465000C9465006C
:100080000C9465000C9465000C94650011241FBE4F
:10009000CFEFD0E4DEBFCDBF11E0A0E0B1E0E4E7F8
:1000A000F5E000E00BBF02C007900D92A631B1074A
:1000B000D9F721E0A6E1B1E001C01D92AA32B20752
:1000C000E1F70E9404020C94B8020C94000040E096
:1000D00050E00CC000002F5F3F4F02C020E030E036
:1000E000273063E03607B4F34F5F5F4F4817590777
:1000F000ACF3089595B19F7B95B98BB985B18068B4
:1001000085B9000085B18F7785B982E090E00E94C3
:100110006700089581E00E947A000895813120F4FB
:1001200081580E947A00089581550E947A000895AE
:1001300084E690E00E94670088E30E947A0086E0EF
:100140000E947A008FE00E947A0081E00E947A008B
:100150008AE090E00E946700089595B1906495B997
:100160008BB985B1806885B9000085B18F7785B975
:1001700081E090E00E9467000895EF92FF920F9354
:100180001F93CF93DF93182FEB010E948A000EC0BC
:1001900001E0010F812F0E948E007E018FEFE81A8F
:1001A000F80A88810E94AD00102FE7018881811133
:1001B000EFCFDF91CF911F910F91FF90EF900895B6
:1001C000CF93C82F8A3019F48DE00E94E00080910F
:1001D000C00085FFFCCFC093C60080E090E0CF91C7
:1001E0000895CF93DF93EC018130910541F0823087
:1001F000910599F0892BD9F4C1E0D0E020C080911D
:100200002901882339F01092280110922701C2E0B9
:10021000D0E015C0882371F012C080912701909121
:1002200028018A30910558F00A9738F408C0C0E0D8
:10023000D0E005C0C0E0D0E002C0C1E0D0E0C130F5
:10024000D10579F0C230D105A9F0209709F580E2F7
:10025000809329010E948A00809129010E948E00CA
:1002600017C00E948A0062E171E0809129010E941A
:10027000BD000EC0809127019091280101969093B6
:1002800028018093270180912901815080932901C1
:10029000CE01DF91CF91089560930E0170930F010D
:1002A00080931001909311016093160170931701D0
:1002B000809318019093190108958BE08093810039
:1002C0008DE790E0909389008093880082E080938E
:1002D0006F00109285001092840080910E01909121
:1002E0000F01A0911001B09111018093160190931C
:1002F0001701A0931801B09319018FB780688FBFC1
:10030000089510928100089581E080931A01089564
:100310001F920F920FB60F9211240BB60F922F93CC
:100320003F934F935F936F937F938F939F93AF937D
:10033000BF93EF93FF938091160190911701A091C5
:100340001801B09119010197A109B1098093160113
:1003500090931701A0931801B0931901892B8A2B50
:100360008B2B91F40E94840180910E0190910F01DA
:10037000A0911001B0911101809316019093170183
:10038000A0931801B0931901FF91EF91BF91AF9124
:100390009F918F917F916F915F914F913F912F919D
:1003A0000F900BBE0F900FBE0F901F9018950F93DC
:1003B0001F93CF93DF93B62FA72FF82FE92F022F8C
:1003C000132FD42FC52F04C0062F172FD82FC92FB6
:1003D0006B2F7A2F8F2F9E2F202F312F4D2F5C2F99
:1003E0000E949602B02FA12FFD2FEC2F61157105F1
:1003F0008105910549F7602F712F8D2F9C2FDF917B
:10040000CF911F910F910895CF93DF9300D0CDB777
:10041000DEB78FEF8AB91BB884B915B80E9498006F
:10042000EBE1F1E0FA83E9838FEF9FEF9183808323
:1004300084E690E0A0E0B0E082839383A483B58358
:1004400086839783A087B18781EF90E09387828727
:1004500000E010E00F2EF4E68F2E912CA12CB12C91
:10046000F02D18C0F801EE0FFF1F81E090E08C0F17
:100470009D1FE80FF91F0190F081E02D228133814B
:1004800044815581C501B4010E94D7014B015C0133
:100490000F5F1F4F0115110529F3C501B4010E941B
:1004A0004C010E945D0100E010E036C0F801EE0F43
:1004B000FF1FA1E0B0E0AC0FBD1FEA0FFB1FE08003
:1004C000F180F70146815781608571858281938132
:1004D000A481B581481759076A077B0771F4028424
:1004E000F385E02DD7018D919C910995F7019183BA
:1004F00080831682178210861186F7018681978184
:10050000A085B185880D991DAA1DBB1D8683978383
:10051000A087B1870F5F1F4F0115110539F2809138
:100520001A018823E1F310921A01BDCFA1E21A2E1D
:10053000AA1BBB1BFD010DC0AA1FBB1FEE1FFF1F87
:10054000A217B307E407F50720F0A21BB30BE40BD7
:10055000F50B661F771F881F991F1A9469F760951E
:100560007095809590959B01AC01BD01CF010895D8
:04057000F894FFCF2D
:100574000000000200000000E00000000000010094
:06058400000068690000A0
:00000001FF
