:100000000C9446000C945D000C945D000C945D0013
:100010000C945D000C945D000C945D000C945D00EC
:100020000C945D000C945D000C945D000C945D00DC
:100030000C945D000C945D000C945D000C945D00CC
:100040000C945D000C945D000C945D000C945D00BC
:100050000C945D000C945D000C945D000C945D00AC
:100060000C945D000C945D000C945D000C945D009C
:100070000C945D000C945D000C945D000C945D008C
:100080000C945D000C945D000C945D0011241FBE67
:10009000CFEFD0E4DEBFCDBF11E0A0E0B1E0E0EFF4
:1000A000F1E000E00BBF02C007900D92A831B1074C
:1000B000D9F70E94E9000C94F6000C94000040E08F
:1000C00050E00CC000002F5F3F4F02C020E030E046
:1000D000273063E03607B4F34F5F5F4F4817590787
:1000E000ACF3089595B19F7B95B98BB985B18068C4
:1000F00085B9000085B18F7785B982E090E00E94D4
:100100005F00089581E00E9472000895813120F41B
:1001100081580E947200089581550E9472000895CE
:1001200084E690E00E945F0088E30E94720086E00F
:100130000E9472008FE00E94720081E00E947200B3
:100140008AE090E00E945F00089595B1906495B9AF
:100150008BB985B1806885B9000085B18F7785B985
:1001600081E090E00E945F000895EF92FF920F936C
:100170001F93CF93DF93182FEB010E9482000EC0D4
:1001800001E0010F812F0E9486007E018FEFE81AA7
:10019000F80A88810E94A500102FE701888181114B
:1001A000EFCFDF91CF911F910F91FF90EF900895C6
:1001B000CF93C82F8A3019F48DE00E94D800809127
:1001C000C00085FFFCCFC093C60080E090E0CF91D7
:1001D00008958FEF8AB91BB884B915B80E949000B2
:1001E0006EE071E081E00E94B500FFCFF894FFCF90
:1001F0000000000200000000D8000000000046756A
:08020000636B20534D730000F5
:00000001FF
