:100000000C9446000C9465000C9465000C946500FB
:100010000C9465000C9465000C9465000C946500CC
:100020000C9465000C9465000C9465000C946500BC
:100030000C9465000C94C5010C9465000C9465004B
:100040000C9465000C9465000C9465000C9465009C
:100050000C9465000C9465000C9465000C9465008C
:100060000C9465000C9465000C9465000C9465007C
:100070000C9465000C9465000C9465000C9465006C
:100080000C9465000C9465000C94650011241FBE4F
:10009000CFEFD0E4DEBFCDBF11E0A0E0B1E0E0EFF4
:1000A000F5E000E00BBF02C007900D92AA33B10744
:1000B000D9F721E0AAE3B1E001C01D92AD34B20747
:1000C000E1F70E9441020C94F6020C94000040E01B
:1000D00050E00CC000002F5F3F4F02C020E030E036
:1000E000273063E03607B4F34F5F5F4F4817590777
:1000F000ACF3089595B19F7B95B98BB985B18068B4
:1001000085B9000085B18F7785B982E090E00E94C3
:100110006700089581E00E947A000895813120F4FB
:1001200081580E947A00089581550E947A000895AE
:1001300084E690E00E94670088E30E947A0086E0EF
:100140000E947A008FE00E947A0081E00E947A008B
:100150008AE090E00E946700089595B1906495B997
:100160008BB985B1806885B9000085B18F7785B975
:1001700081E090E00E9467000895EF92FF920F9354
:100180001F93CF93DF93182FEB010E948A000EC0BC
:1001900001E0010F812F0E948E007E018FEFE81A8F
:1001A000F80A88810E94AD00102FE7018881811133
:1001B000EFCFDF91CF911F910F91FF90EF900895B6
:1001C000CF93C82F8A3019F48DE00E94E00080910F
:1001D000C00085FFFCCFC093C60080E090E0CF91C7
:1001E0000895CF93DF93EC018130910569F01CF401
:1001F000892B39F04BC082309105E1F0039781F1F2
:1002000045C0C1E0D0E044C08091000190E0209161
:100210004B0130914C0128173907D0F128173907C5
:10022000B8F10E948A0010924C0110924B01C2E07A
:10023000D0E02EC08091000190E020914B013091E0
:100240004C012817390720F12817390708F10E94B7
:100250008A0010924C0110924B01C3E0D0E018C00C
:100260008091000190E020914B0130914C012817C2
:10027000390770F02817390758F00E948A00109249
:100280004C0110924B01C1E0D0E002C0C0E0D0E0D0
:10029000C130D10571F01CF4209741F036C0C23056
:1002A000D105B1F0C330D10511F12FC00E948A00F1
:1002B0002CC080914B0190914C01019690934C0180
:1002C00080934B0163E171E081E00E94BD001DC09D
:1002D00080914B0190914C01019690934C01809339
:1002E0004B0167E271E081E00E94BD000EC0809189
:1002F0004B0190914C01019690934C0180934B01DE
:1003000063E371E081E00E94BD00CE01DF91CF91F7
:10031000089560930F0170931001809311019093E1
:10032000120160933A0170933B0180933C019093DA
:100330003D0108958BE0809381008DE790E09093DC
:1003400089008093880082E080936F00109285007E
:100350001092840080910F0190911001A0911101E1
:10036000B091120180933A0190933B01A0933C011C
:10037000B0933D018FB780688FBF089510928100C0
:10038000089581E080933E0108951F920F920FB669
:100390000F9211240BB60F922F933F934F935F93BD
:1003A0006F937F938F939F93AF93BF93EF93FF933D
:1003B00080913A0190913B01A0913C01B0913D01A7
:1003C0000197A109B10980933A0190933B01A09351
:1003D0003C01B0933D01892B8A2B8B2B91F40E9419
:1003E000C10180910F0190911001A0911101B09174
:1003F000120180933A0190933B01A0933C01B0938A
:100400003D01FF91EF91BF91AF919F918F917F91AE
:100410006F915F914F913F912F910F900BBE0F9075
:100420000FBE0F901F9018950F931F93CF93DF93DC
:10043000B62FA72FF82FE92F022F132FD42FC52F58
:1004400004C0062F172FD82FC92F6B2F7A2F8F2F6D
:100450009E2F202F312F4D2F5C2F0E94D402B02FC2
:10046000A12FFD2FEC2F611571058105910549F72D
:10047000602F712F8D2F9C2FDF91CF911F910F91A6
:100480000895CF93DF9300D0CDB7DEB78FEF8AB951
:100490001BB884B915B80E949800EFE3F1E0FA8325
:1004A000E9838FEF9FEF9183808388EE93E0A0E054
:1004B000B0E082839383A483B58386839783A087E8
:1004C000B18781EF90E09387828700E010E00F2EE4
:1004D000F8EE8F2EF3E09F2EA12CB12CF02D18C03A
:1004E000F801EE0FFF1F81E090E08C0F9D1FE80FD9
:1004F000F91F0190F081E02D2281338144815581E3
:10050000C501B4010E9414024B015C010F5F1F4F33
:100510000115110529F3C501B4010E9489010E944A
:100520009A0100E010E036C0F801EE0FFF1FA1E0D5
:10053000B0E0AC0FBD1FEA0FFB1FE080F180F701B8
:10054000468157816085718582819381A481B581BF
:10055000481759076A077B0771F40284F385E02D79
:10056000D7018D919C910995F70191838083168223
:10057000178210861186F70186819781A085B18543
:10058000880D991DAA1DBB1D86839783A087B187FF
:100590000F5F1F4F0115110539F280913E0188232D
:1005A000E1F310923E01BDCFA1E21A2EAA1BBB1BA4
:1005B000FD010DC0AA1FBB1FEE1FFF1FA217B3072F
:1005C000E407F50720F0A21BB30BE40BF50B661F45
:1005D000771F881F991F1A9469F760957095809509
:1005E00090959B01AC01BD01CF010895F894FFCF18
:1005F000020000000200000000E000000000000116
:10060000000000435331323042206973204C65674B
:10061000656E642E2E2E007761697420666F7220DD
:0A06200069740044415259210000A2
:00000001FF
