:100000000C9446000C9465000C9465000C946500FB
:100010000C9465000C9465000C9465000C946500CC
:100020000C9465000C9465000C9465000C946500BC
:100030000C9465000C94D2000C9465000C9465003F
:100040000C9465000C9465000C9465000C9465009C
:100050000C9465000C9465000C9465000C9465008C
:100060000C9465000C9465000C9465000C9465007C
:100070000C9465000C9465000C9465000C9465006C
:100080000C9465000C9465000C94650011241FBE4F
:10009000CFEFD0E4DEBFCDBF11E0A0E0B1E0E4EDF2
:1000A000F4E000E00BBF02C007900D92A231B1074F
:1000B000D9F721E0A2E1B1E001C01D92A332B2075D
:1000C000E1F70E94B7010C9468020C940000CF93F2
:1000D000C82F8A3019F48DE00E9467008091C0001B
:1000E00085FFFCCFC093C60080E090E0CF910895DB
:1000F000442349F021E030E002C0220F331F6A950B
:10010000E2F7822B089521E030E002C0220F331F76
:100110006A95E2F720958223089521E030E002C03D
:10012000220F331F6A95E2F78223089560930E0130
:1001300070930F018093100190931101609312014D
:1001400070931301809314019093150108958BE02F
:10015000809381008DE790E09093890080938800E0
:1001600082E080936F00109285001092840080914D
:100170000E0190910F01A0911001B0911101809397
:10018000120190931301A0931401B09315018FB73E
:1001900080688FBF089510928100089581E0809358
:1001A000160108951F920F920FB60F9211240BB6ED
:1001B0000F922F933F934F935F936F937F938F9300
:1001C0009F93AF93BF93EF93FF9380911201909110
:1001D0001301A0911401B09115010197A109B10972
:1001E0008093120190931301A0931401B093150111
:1001F000892B8A2B8B2B91F40E94CE0080910E01CB
:1002000090910F01A0911001B09111018093120102
:1002100090931301A0931401B0931501FF91EF91F6
:10022000BF91AF919F918F917F916F915F914F910E
:100230003F912F910F900BBE0F900FBE0F901F900C
:1002400018958FEE88B9000086B160E00E948D009D
:10025000882301F186B161E00E948D008823E1F0DE
:1002600086B162E00E948D008823C1F086B163E010
:100270000E948D008823A1F08FED88B9000086B11F
:1002800060E00E948D00882369F08FEB88B9000040
:1002900080E0089581E3089584E3089587E3089555
:1002A0008AE2089582E30895CF93DF93EC010E94E0
:1002B0002101209739F4813341F0823349F08A32A9
:1002C00061F409C0C0E0D0E008C0C1E0D0E005C0E2
:1002D000C2E0D0E002C0C3E0D0E0C130D10559F0A7
:1002E0001CF4209799F010C0C230D10539F0C3300A
:1002F000D10539F009C081E085B908C082E085B92F
:1003000005C08EE085B902C08BE185B9CE01DF91D1
:10031000CF9108950F931F93CF93DF93B62FA72FFD
:10032000F82FE92F022F132FD42FC52F04C0062F2B
:10033000172FD82FC92F6B2F7A2F8F2F9E2F202F5B
:10034000312F4D2F5C2F0E944602B02FA12FFD2F81
:10035000EC2F611571058105910549F7602F712F0B
:100360008D2F9C2FDF91CF911F910F910895CF93E7
:10037000DF9300D0CDB7DEB78FEF84B915B880EF2B
:1003800087B98FE088B9E7E1F1E0FA83E9838FEF7D
:100390009FEF9183808381E090E0A0E0B0E08283D2
:1003A0009383A483B58386839783A087B18784E5ED
:1003B00091E09387828700E010E0812C912C54011A
:1003C000839418C0F801EE0FFF1F81E090E08C0FBE
:1003D0009D1FE80FF91F0190F081E02D22813381EC
:1003E00044815581C501B4010E948A014B015C0121
:1003F0000F5F1F4F0115110529F3C501B4010E94BC
:1004000096000E94A70000E010E036C0F801EE0F51
:10041000FF1FA1E0B0E0AC0FBD1FEA0FFB1FE080A3
:10042000F180F701468157816085718582819381D2
:10043000A481B581481759076A077B0771F40284C4
:10044000F385E02DD7018D919C910995F70191835A
:1004500080831682178210861186F7018681978124
:10046000A085B185880D991DAA1DBB1D8683978324
:10047000A087B1870F5F1F4F0115110539F28091D9
:1004800016018823E1F310921601BDCFA1E21A2EC6
:10049000AA1BBB1BFD010DC0AA1FBB1FEE1FFF1F28
:1004A000A217B307E407F50720F0A21BB30BE40B78
:1004B000F50B661F771F881F991F1A9469F76095BF
:1004C0007095809590959B01AC01BD01CF01089579
:0404D000F894FFCFCE
:1004D40000000002000000006700000000000100AE
:0204E400000016
:00000001FF
