:100000000C9446000C9465000C9465000C946500FB
:100010000C9465000C9465000C9465000C946500CC
:100020000C9465000C9465000C9465000C946500BC
:100030000C9465000C9492010C9465000C9465007E
:100040000C9465000C9465000C9465000C9465009C
:100050000C9465000C9465000C9465000C9465008C
:100060000C9465000C9465000C9465000C9465007C
:100070000C9465000C9465000C9465000C9465006C
:100080000C9465000C9465000C94650011241FBE4F
:10009000CFEFD0E4DEBFCDBF11E0A0E0B1E0E8E3F8
:1000A000F7E000E00BBF02C007900D92A432B10749
:1000B000D9F721E0A4E2B1E001C01D92A434B20757
:1000C000E1F70E94C4020C949A030C94000040E0F3
:1000D00050E00CC000002F5F3F4F02C020E030E036
:1000E000273063E03607B4F34F5F5F4F4817590777
:1000F000ACF3089595B19F7B95B98BB985B18068B4
:1001000085B9000085B18F7785B982E090E00E94C3
:100110006700089581E00E947A000895813120F4FB
:1001200081580E947A00089581550E947A000895AE
:1001300084E690E00E94670088E30E947A0086E0EF
:100140000E947A008FE00E947A0081E00E947A008B
:100150008AE090E00E946700089595B1906495B997
:100160008BB985B1806885B9000085B18F7785B975
:1001700081E090E00E9467000895EF92FF920F9354
:100180001F93CF93DF93182FEB010E948A000EC0BC
:1001900001E0010F812F0E948E007E018FEFE81A8F
:1001A000F80A88810E94AD00102FE7018881811133
:1001B000EFCFDF91CF911F910F91FF90EF900895B6
:1001C000CF93C82F8A3019F48DE00E94E00080910F
:1001D000C00085FFFCCFC093C60080E090E0CF91C7
:1001E0000895CF93DF93EC018130910541F0823087
:1001F000910561F0892BE1F4C1E0D0E01BC0809152
:1002000024018823B9F0C2E0D0E014C080914301FA
:10021000803130F48F5F80934301C1E0D0E00AC0A9
:10022000803140F081E080934301C1E0D0E002C022
:10023000C0E0D0E0C130D10571F0C230D10581F00D
:10024000209791F463E171E081E00E94BD0081E0BC
:100250000E948E0009C0809143010E948E0004C05C
:10026000809142010E94AD00CE01DF91CF910895AF
:10027000442349F021E030E002C0220F331F6A9589
:10028000E2F7822B089521E030E002C0220F331FF5
:100290006A95E2F720958223089521E030E002C0BC
:1002A000220F331F6A95E2F78223089560930F01AE
:1002B00070931001809311019093120160932501B6
:1002C00070932601809327019093280108958BE075
:1002D000809381008DE790E090938900809388005F
:1002E00082E080936F0010928500109284008091CC
:1002F0000F0190911001A0911101B0911201809312
:10030000250190932601A0932701B09328018FB770
:1003100080688FBF089510928100089581E08093D6
:10032000290108951F920F920FB60F9211240BB658
:100330000F922F933F934F935F936F937F938F937E
:100340009F93AF93BF93EF93FF938091250190917B
:100350002601A0912701B09128010197A109B109B7
:100360008093250190932601A0932701B093280143
:10037000892B8A2B8B2B91F40E948E0180910F0187
:1003800090911001A0911101B0911201809325016B
:1003900090932601A0932701B0932801FF91EF913C
:1003A000BF91AF919F918F917F916F915F914F918D
:1003B0003F912F910F900BBE0F900FBE0F901F908B
:1003C000189540E064E08FEF0E94380188B9000082
:1003D00086B160E080950E944D01811180C086B198
:1003E00061E080950E944D0181117BC086B162E081
:1003F00080950E944D01811176C086B163E08095A1
:100400000E944D01811171C040E065E08FEF0E94B4
:10041000380188B9000086B160E080950E944D01E6
:10042000811165C086B161E080950E944D01811106
:1004300060C086B162E080950E944D0181115BC071
:1004400086B163E080950E944D01811156C040E065
:1004500066E08FEF0E94380188B9000086B160E045
:1004600080950E944D0181114AC086B161E080955E
:100470000E944D01811145C086B162E080950E94C5
:100480004D01811140C086B163E080950E944D010D
:1004900081113BC040E067E08FEF0E94380188B9CE
:1004A000000086B160E080950E944D0181112FC04F
:1004B00086B161E080950E944D0181112AC086B10C
:1004C00062E080950E944D01811125C086B163E0F4
:1004D00080950E944D018823F9F084E4089581E31A
:1004E000089584E3089587E308958AE2089582E3F6
:1004F000089585E3089588E3089580E3089583E3EC
:10050000089586E3089589E3089583E2089581E4D8
:10051000089582E4089583E408950E94E1018093A0
:10052000240181118093420180E090E008950F93AF
:100530001F93CF93DF93B62FA72FF82FE92F022F0A
:10054000132FD42FC52F04C0062F172FD82FC92F34
:100550006B2F7A2F8F2F9E2F202F312F4D2F5C2F17
:100560000E947803B02FA12FFD2FEC2F611571058C
:100570008105910549F7602F712F8D2F9C2FDF91F9
:10058000CF911F910F910895CF93DF9300D000D0AA
:10059000CDB7DEB78FEF84B915B88AB915B880EF3B
:1005A00087B98FE088B90E9498000E948A00A6E36C
:1005B000B1E0BA83A983EAE2F1E0FC83EB838FEF39
:1005C0009FEF11969C938E9344E650E060E070E0BC
:1005D00012964D935D936D937C93159716964D935C
:1005E0005D936D937C9319972DE832E01B963C93B5
:1005F0002E931A97918380834283538364837583F8
:10060000468357836087718781EF90E09387828765
:1006100000E010E00F2EF4E68F2E912CA12CB12CCF
:10062000F02D18C0F801EE0FFF1F81E090E08C0F55
:100630009D1FE80FF91F0190F081E02D2281338189
:1006400044815581C501B4010E9497024B015C01B0
:100650000F5F1F4F0230110528F3C501B4010E943E
:1006600056010E946701E12CF12C37C0F701EE0F13
:10067000FF1FA1E0B0E0AC0FBD1FEA0FFB1F008120
:100680001181F8014681578160857185828193814E
:10069000A481B581481759076A077B0771F4028462
:1006A000F385E02DD8018D919C910995F8019183F6
:1006B00080831682178210861186F80186819781C1
:1006C000A085B185880D991DAA1DBB1D86839783C2
:1006D000A087B187FFEFEF1AFF0A82E0E816F10466
:1006E00028F2809129018823E1F310922901BBCFE0
:1006F000A1E21A2EAA1BBB1BFD010DC0AA1FBB1F26
:10070000EE1FFF1FA217B307E407F50720F0A21B97
:10071000B30BE40BF50B661F771F881F991F1A9404
:1007200069F760957095809590959B01AC01BD012E
:08073000CF010895F894FFCFFA
:10073800010000000200000000E0000000000001CD
:10074800000000436F6E67726174756C6174696F45
:040758006E7321009B
:00000001FF
