:100000000C9446000C945D000C945D000C945D0013
:100010000C945D000C945D000C945D000C945D00EC
:100020000C945D000C945D000C945D000C945D00DC
:100030000C945D000C945D000C945D000C945D00CC
:100040000C945D000C945D000C945D000C945D00BC
:100050000C945D000C945D000C945D000C945D00AC
:100060000C945D000C945D000C945D000C945D009C
:100070000C945D000C945D000C945D000C945D008C
:100080000C945D000C945D000C945D0011241FBE67
:10009000CFEFD0E4DEBFCDBF11E0A0E0B1E0E2E6FB
:1000A000F1E000E00BBF02C007900D92AE30B10747
:1000B000D9F70E9476000C94AF000C940000CF9307
:1000C000C82F8A3019F48DE00E945F008091C00033
:1000D00085FFFCCFC093C60080E090E0CF910895EB
:1000E000EAE7F0E08081806E8083089511B88FEF99
:1000F00082B984B915B80E947000809178009091FF
:10010000790080379105C0F485369105B8F48B35B8
:100110009105B0F481359105A8F487349105A0F4D8
:100120008D33910598F48333910590F489329105CC
:1001300088F44F9788F411C0CFEF0FC0CFEF0DC0F8
:10014000CFE70BC0CFE309C0CFE107C0CFE005C0C8
:10015000C7E003C0C3E001C0C1E0C5B9CECFF89489
:02016000FFCFCF
:0E01620000000002000000005F00000000002E
:00000001FF
