:100000000C9446000C9465000C9465000C946500FB
:100010000C9465000C9465000C9465000C946500CC
:100020000C9465000C9465000C9465000C946500BC
:100030000C9465000C941C010C9465000C946500F4
:100040000C9465000C9465000C9465000C9465009C
:100050000C9465000C9465000C9465000C9465008C
:100060000C9465000C9465000C9465000C9465007C
:100070000C9465000C9465000C9465000C9465006C
:100080000C9465000C9465000C94650011241FBE4F
:10009000CFEFD0E4DEBFCDBF11E0A0E0B1E0E8EFEC
:1000A000F4E000E00BBF02C007900D92AA31B10747
:1000B000D9F721E0AAE1B1E001C01D92A432B20754
:1000C000E1F70E943A020C947A020C94000040E09E
:1000D00050E00CC000002F5F3F4F02C020E030E036
:1000E000273063E03607B4F34F5F5F4F4817590777
:1000F000ACF308959BB19F7B9BB988B98BB18068A5
:100100008BB900008BB18F778BB982E090E00E94B1
:100110006700089581E00E947A000895813120F4FB
:1001200081580E947A00089581550E947A000895AE
:1001300084E690E00E94670088E30E947A0086E0EF
:100140000E947A008FE00E947A0081E00E947A008B
:100150008AE090E00E94670008959BB190649BB98B
:1001600088B98BB180688BB900008BB18F778BB960
:1001700081E090E00E9467000895EF92FF920F9354
:100180001F93CF93DF93182FEB010E948A000EC0BC
:1001900001E0010F812F0E948E007E018FEFE81A8F
:1001A000F80A88810E94AD00102FE7018881811133
:1001B000EFCFDF91CF911F910F91FF90EF900895B6
:1001C000CF93C82F8A3019F48DE00E94E00080910F
:1001D000C00085FFFCCFC093C60080E090E0CF91C7
:1001E00008958BE0809381008DE790E090938900E3
:1001F0008093880082E080936F00109285001092B7
:1002000084008091000190910101A0910201B091C0
:10021000030180931A0190931B01A0931C01B093DA
:100220001D018FB780688FBF0895109281000895D7
:1002300081E080931E0108951F920F920FB60F92D6
:1002400011240BB60F922F933F934F935F936F93AD
:100250007F938F939F93AF93BF93EF93FF9380917F
:100260001A0190911B01A0911C01B0911D010197F1
:10027000A109B10980931A0190931B01A0931C015D
:10028000B0931D01892B8A2B8B2B91F40E941801AE
:100290008091000190910101A0910201B0910301B0
:1002A00080931A0190931B01A0931C01B0931D0130
:1002B000FF91EF91BF91AF919F918F917F916F913E
:1002C0005F914F913F912F910F900BBE0F900FBEFA
:1002D0000F901F9018956093000170930101809317
:1002E00002019093030160931A0170931B018093A4
:1002F0001C0190931D01089580912001909121018E
:1003000082309105E9F028F4009761F0019789F0B7
:100310007AC08430910509F452C090F1059709F430
:1003200060C071C081E090E0909321018093200132
:100330006EC082E090E0909321018093200167C01D
:1003400080911F01813039F484E090E09093210185
:10035000809320015CC080912301843038F482E0D6
:1003600090E0909321018093200151C0843008F4E3
:100370004EC083E090E0909321018093200147C01C
:1003800080911F01813039F484E090E09093210145
:10039000809320013CC080912301823038F083E0BB
:1003A00090E0909321018093200131C0823078F554
:1003B00082E090E0909321018093200128C08091F9
:1003C0001F01813039F085E090E090932101809306
:1003D00020011DC084E090E09093210180932001D2
:1003E00016C080911F01882339F081E090E090933E
:1003F0002101809320010BC085E090E090932101C2
:100400008093200104C0109221011092200180915C
:100410002001909121018230910571F018F401972B
:1004200039F008958330910569F0049789F00895B3
:1004300081E080932301089580912301880F8093A8
:1004400023010895809123018695809323010895C7
:1004500080912301823041F480912201893048F457
:100460008F5F8093220108958091220181508093B3
:100470002201089511B88FEF82B984B915B887B9F0
:1004800018B88AB91BB80E949800109221011092E6
:1004900020011092230185E0809322016CE271E03B
:1004A00080E090E00E946B010E94F10090B181E039
:1004B0008927817080931F010E947C018091230114
:1004C00085B981E00E948E0080912201893040F040
:1004D0000E948A0062E171E081E00E94BD0003C0D9
:1004E000805D0E94AD0080911E018823E1F310928F
:0804F0001E01DCCFF894FFCFE0
:1004F800010000000000000200000000E000000011
:0A050800000057494E4E45522100F5
:00000001FF
