:100000000C9446000C9465000C9465000C946500FB
:100010000C9465000C9465000C9465000C946500CC
:100020000C9465000C9465000C9465000C946500BC
:100030000C9465000C94A3000C9465000C9465006E
:100040000C9465000C9465000C9465000C9465009C
:100050000C9465000C9465000C9465000C9465008C
:100060000C9465000C9465000C9465000C9465007C
:100070000C9465000C9465000C9465000C9465006C
:100080000C9465000C9465000C94650011241FBE4F
:10009000CFEFD0E4DEBFCDBF11E0A0E0B1E0EEE8ED
:1000A000F8E000E00BBF02C007900D92A433B10747
:1000B000D9F721E0A4E3B1E001C01D92A234B20758
:1000C000E1F70E946A020C9445040C940000CF935F
:1000D000C82F8A3019F48DE00E9467008091C0001B
:1000E00085FFFCCFC093C60080E090E0CF910895DB
:1000F0008BE0809381008DE790E09093890080935E
:10010000880082E080936F00109285001092840036
:100110008091000190910101A0910201B091030131
:100120008093340190933501A0933601B093370149
:100130008FB780688FBF089510928100089581E085
:100140008093380108951F920F920FB60F921124D9
:100150000BB60F922F933F934F935F936F937F93C1
:100160008F939F93AF93BF93EF93FF93809134014D
:1001700090913501A0913601B09137010197A10905
:10018000B1098093340190933501A0933601B09367
:100190003701892B8A2B8B2B91F40E949F00809131
:1001A000000190910101A0910201B091030180939F
:1001B000340190933501A0933601B0933701FF913C
:1001C000EF91BF91AF919F918F917F916F915F91CF
:1001D0004F913F912F910F900BBE0F900FBE0F903C
:1001E0001F901895609300017093010180930201A4
:1001F000909303016093340170933501809336012D
:10020000909337010895CF92DF92EF92FF926B01A6
:100210007C016091390170913A0180913B0190918C
:100220003C01A70196010E94B102882309F458C03D
:1002300020E030E0A901C701B6010E94B10281119E
:1002400006C0E1E9F0E080818870808305C0E1E9C3
:10025000F0E080818360808328E539E344E75FE351
:10026000C701B6010E94B10288233CF48FEF9FEFD3
:10027000909399008093980027C020E034E244EFE7
:1002800056E4C701B6010E94D30318162CF410924D
:1002900099001092980018C020E030E040E053E44C
:1002A000C701B6010E94D8039B01AC0160E074E273
:1002B00084EF9AE40E94B6020E94280361507109FB
:1002C000709399006093980010929500109294009A
:1002D000C0923901D0923A01E0923B01F0923C0188
:1002E000FF90EF90DF90CF90089580E4809390008E
:1002F0008BE08093910060E070E0CB010E940301ED
:10030000089510929000109291000895833439F46A
:1003100060E070E882E893E40E9403010895843469
:1003200039F460E070E882E993E40E9403010895E3
:10033000853439F460E070E884EA93E40E940301B4
:100340000895863439F460E070E88EEA93E40E9400
:1003500003010895873439F460E070E084EC93E49D
:100360000E9403010895813439F460E070E08CED5F
:1003700093E40E9403010895823439F460E070E848
:1003800086EF93E40E9403010895883031F460E021
:1003900070EC82E094E40E9403010895CF93DF9310
:1003A000EC0180913F01909140018230910509F16B
:1003B00028F4009751F0019779F060C083309105DF
:1003C000C9F1049709F44FC059C081E090E09093BF
:1003D000400180933F0156C080913D0180FF52C093
:1003E0000E94750182E090E09093400180933F016C
:1003F00049C020913E0130E080914101E82FF0E0BA
:10040000EE0FFF1FE40FF51F808191812817390738
:100410003CF482E090E09093400180933F0132C031
:10042000281739077CF183E090E090934001809396
:100430003F0128C08091410190E0861797073CF466
:1004400082E090E09093400180933F011BC08617AB
:100450009707C4F00E94810184E090E090934001EE
:1004600080933F010FC080913D0180FD0BC081E072
:1004700090E09093400180933F0104C010924001AE
:1004800010923F0180913F0190914001823091058F
:1004900051F083309105A1F00197C9F41092410108
:1004A00010923E0114C080913E018F5F80933E0107
:1004B00080914101C80FD11D88810E94860107C02B
:1004C000809141018F5F8093410110923E01DF9145
:1004D000CF910895CF93DF93CDB7DEB7A1970FB635
:1004E000F894DEBF0FBECDBF11B88FEF82B984B9CB
:1004F00015B864E670E080E090E00E94F2000E948F
:1005000078001092400110923F010E9481018BE01F
:10051000E2E1F1E0DE01119601900D928A95E1F79A
:1005200086E1EDE1F1E0DE011C9601900D928A95E5
:10053000E1F790B181E08927817080933D012BE044
:1005400030E0AE01445F5F4F6BE070E0CE0101969A
:100550000E94CE01809138018823E1F31092380186
:10056000E8CF0E945E0308F481E008950E94CA0269
:100570000C9499030E94920358F00E948B0340F060
:1005800029F45F3F29F00C94820351110C94CD03A0
:100590000C9488030E94AA0368F39923B1F35523AE
:1005A00091F3951B550BBB27AA2762177307840786
:1005B00038F09F5F5F4F220F331F441FAA1FA9F31C
:1005C00035D00E2E3AF0E0E832D091505040E6950A
:1005D000001CCAF72BD0FE2F29D0660F771F881F6B
:1005E000BB1F261737074807AB07B0E809F0BB0B5E
:1005F000802DBF01FF2793585F4F3AF09E3F510572
:1006000078F00C9482030C94CD035F3FE4F3983EA2
:10061000D4F3869577956795B795F7959F5FC9F75A
:10062000880F911D9695879597F90895E1E0660FDB
:10063000771F881FBB1F621773078407BA0720F054
:10064000621B730B840BBA0BEE1F88F7E0950895BD
:100650000E942F036894B1110C94CD0308950E9459
:10066000B20388F09F5798F0B92F9927B751B0F08F
:10067000E1F0660F771F881F991F1AF0BA95C9F726
:1006800014C0B13091F00E94CC03B1E008950C94F5
:10069000CC03672F782F8827B85F39F0B93FCCF3A8
:1006A000869577956795B395D9F73EF490958095A3
:1006B000709561957F4F8F4F9F4F0895990F000858
:1006C000550FAA0BE0E8FEEF16161706E807F90724
:1006D000C0F012161306E407F50798F0621B730BBF
:1006E000840B950B39F40A2661F0232B242B252B40
:1006F00021F408950A2609F4A140A6958FEF811DE3
:10070000811D089597F99F6780E870E060E0089583
:100710009FEF80EC089500240A9416161706180619
:100720000906089500240A941216130614060506F5
:100730000895092E0394000C11F4882352F0BB0F86
:1007400040F4BF2B11F460FF04C06F5F7F4F8F4FE9
:100750009F4F089557FD9058440F551F59F05F3F24
:1007600071F04795880F97FB991F61F09F3F79F0D3
:1007700087950895121613061406551FF2CF469555
:10078000F1DF08C0161617061806991FF1CF8695D7
:100790007105610508940895E894BB2766277727BB
:1007A000CB0197F908950E945E0308F48FEF089536
:1007B0000E94EB030C9499030E948B0338F00E9473
:1007C000920320F0952311F00C9482030C9488037B
:1007D00011240C94CD030E94AA0370F3959FC1F3DA
:1007E000950F50E0551F629FF001729FBB27F00DDF
:1007F000B11D639FAA27F00DB11DAA1F649F662734
:10080000B00DA11D661F829F2227B00DA11D621F82
:10081000739FB00DA11D621F839FA00D611D221F3C
:10082000749F3327A00D611D231F849F600D211D20
:10083000822F762F6A2F11249F5750409AF0F1F0A3
:1008400088234AF0EE0FFF1FBB1F661F771F881F0C
:1008500091505040A9F79E3F510580F00C948203BF
:100860000C94CD035F3FE4F3983ED4F386957795DF
:100870006795B795F795E7959F5FC1F7FE2B880FB2
:0E088000911D9695879597F90895F894FFCFEE
:10088E0001000000000000020000000067000000F0
:10089E000000434443444445464445464301000159
:1008AE00000100010003000100010003000100012E
:0408BE000001000035
:00000001FF
