:100000000C9446000C9465000C9465000C946500FB
:100010000C9465000C9465000C9465000C946500CC
:100020000C9465000C9465000C9465000C946500BC
:100030000C9465000C94A3000C9465000C9465006E
:100040000C9465000C9465000C9465000C9465009C
:100050000C9465000C9465000C9465000C9465008C
:100060000C9465000C9465000C9465000C9465007C
:100070000C9465000C9465000C9465000C9465006C
:100080000C9465000C9465000C94650011241FBE4F
:10009000CFEFD0E4DEBFCDBF11E0A0E0B1E0E0E300
:1000A000F8E000E00BBF02C007900D92A231B1074B
:1000B000D9F721E0A2E1B1E001C01D92AF31B20752
:1000C000E1F70E945A020C9416040C940000CF939E
:1000D000C82F8A3019F48DE00E9467008091C0001B
:1000E00085FFFCCFC093C60080E090E0CF910895DB
:1000F0008BE0809381008DE790E09093890080935E
:10010000880082E080936F00109285001092840036
:100110008091000190910101A0910201B091030131
:100120008093120190931301A0931401B0931501D1
:100130008FB780688FBF089510928100089581E085
:100140008093160108951F920F920FB60F921124FB
:100150000BB60F922F933F934F935F936F937F93C1
:100160008F939F93AF93BF93EF93FF93809112016F
:1001700090911301A0911401B09115010197A1096B
:10018000B1098093120190931301A0931401B093CD
:100190001501892B8A2B8B2B91F40E949F00809153
:1001A000000190910101A0910201B091030180939F
:1001B000120190931301A0931401B0931501FF91C4
:1001C000EF91BF91AF919F918F917F916F915F91CF
:1001D0004F913F912F910F900BBE0F900FBE0F903C
:1001E0001F901895609300017093010180930201A4
:1001F0009093030160931201709313018093140193
:10020000909315010895CF92DF92EF92FF926B01C8
:100210007C016091170170911801809119019091F2
:100220001A01A70196010E948202882309F458C08E
:1002300020E030E0A901C701B6010E9482028111CD
:1002400006C0E1E9F0E080818870808305C0E1E9C3
:10025000F0E080818360808328E539E344E75FE351
:10026000C701B6010E94820288233CF48FEF9FEF02
:10027000909399008093980027C020E034E244EFE7
:1002800056E4C701B6010E94A40318162CF410927C
:1002900099001092980018C020E030E040E053E44C
:1002A000C701B6010E94A9039B01AC0160E074E2A2
:1002B00084EF9AE40E9487020E94F902615071095A
:1002C000709399006093980010929500109294009A
:1002D000C0921701D0921801E0921901F0921A0110
:1002E000FF90EF90DF90CF90089580E4809390008E
:1002F0008BE08093910060E070E0CB010E940301ED
:10030000089510929000109291000895813039F470
:1003100060E070E882E893E40E940301089582306F
:1003200039F460E070E882E993E40E9403010895E3
:10033000833039F460E070E884EA93E40E940301BA
:100340000895843039F460E070E88EEA93E40E9406
:1003500003010895853039F460E070E084EC93E4A3
:100360000E9403010895863039F460E070E08CED5E
:1003700093E40E9403010895873039F460E070E847
:1003800086EF93E40E9403010895883031F460E021
:1003900070EC82E094E40E940301089580911D01B5
:1003A00090911E018230910509F128F4009761F0C7
:1003B000019789F051C08430910509F43FC008F1DC
:1003C000059709F442C048C081E090E090931E0177
:1003D00080931D0145C080911B0180FF41C082E0D8
:1003E00090E090931E0180931D013AC080911B0103
:1003F00080FD36C083E090E090931E0180931D0144
:100400002FC080911B0181FF07C084E090E0909392
:100410001E0180931D0124C082FF07C085E090E08B
:1004200090931E0180931D011BC080FF19C081E0C5
:1004300090E090931E0180931D0112C083E090E034
:1004400090931E0180931D010BC083E090E0909378
:100450001E0180931D0104C010921E0110921D0107
:1004600080911D0190911E018230910581F018F458
:10047000019739F008958430910561F0059791F066
:1004800008950E94810181E080931C0108950E94DB
:100490007501089580911C01883058F48F5F809316
:1004A0001C01089580911C01823018F081508093C6
:1004B0001C01089511B88FEF82B984B915B864E6AC
:1004C00070E080E090E00E94F2000E9478001092BC
:1004D0001E0110921D0181E080931C010E94810188
:1004E00080B18095877080931B010E94CE0180911E
:1004F0001C010E948601809116018823E1F310926D
:100500001601EECF0E942F0308F481E008950E94A7
:100510009B020C946A030E94630358F00E945C03E0
:1005200040F029F45F3F29F00C94530351110C94CF
:100530009E030C9459030E947B0368F39923B1F343
:10054000552391F3951B550BBB27AA2762177307F9
:10055000840738F09F5F5F4F220F331F441FAA1F8D
:10056000A9F335D00E2E3AF0E0E832D09150504049
:10057000E695001CCAF72BD0FE2F29D0660F771FF7
:10058000881FBB1F261737074807AB07B0E809F0DD
:10059000BB0B802DBF01FF2793585F4F3AF09E3F62
:1005A000510578F00C9453030C949E035F3FE4F3E1
:1005B000983ED4F3869577956795B795F7959F5FA5
:1005C000C9F7880F911D9695879597F90895E1E0F1
:1005D000660F771F881FBB1F621773078407BA0750
:1005E00020F0621B730B840BBA0BEE1F88F7E095AB
:1005F00008950E9400036894B1110C949E0308951D
:100600000E94830388F09F5798F0B92F9927B7511C
:10061000B0F0E1F0660F771F881F991F1AF0BA95A6
:10062000C9F714C0B13091F00E949D03B1E0089564
:100630000C949D03672F782F8827B85F39F0B93F56
:10064000CCF3869577956795B395D9F73EF4909559
:100650008095709561957F4F8F4F9F4F0895990FAB
:100660000008550FAA0BE0E8FEEF16161706E8077C
:10067000F907C0F012161306E407F50798F0621B9D
:10068000730B840B950B39F40A2661F0232B242B72
:10069000252B21F408950A2609F4A140A6958FEF91
:1006A000811D811D089597F99F6780E870E060E0E3
:1006B00008959FEF80EC089500240A9416161706FB
:1006C00018060906089500240A9412161306140643
:1006D00005060895092E0394000C11F4882352F0A6
:1006E000BB0F40F4BF2B11F460FF04C06F5F7F4F5E
:1006F0008F4F9F4F089557FD9058440F551F59F045
:100700005F3F71F04795880F97FB991F61F09F3FFE
:1007100079F087950895121613061406551FF2CF27
:100720004695F1DF08C0161617061806991FF1CF77
:1007300086957105610508940895E894BB2766279E
:100740007727CB0197F908950E942F0308F48FEFC4
:1007500008950E94BC030C946A030E945C0338F065
:100760000E94630320F0952311F00C9453030C9422
:10077000590311240C949E030E947B0370F3959FF0
:10078000C1F3950F50E0551F629FF001729FBB2788
:10079000F00DB11D639FAA27F00DB11DAA1F649F24
:1007A0006627B00DA11D661F829F2227B00DA11DD7
:1007B000621F739FB00DA11D621F839FA00D611D5D
:1007C000221F749F3327A00D611D231F849F600D7E
:1007D000211D822F762F6A2F11249F5750409AF0A7
:1007E000F1F088234AF0EE0FFF1FBB1F661F771F33
:1007F000881F91505040A9F79E3F510580F00C94FE
:1008000053030C949E035F3FE4F3983ED4F3869524
:1008100077956795B795F795E7959F5FC1F7FE2B9D
:10082000880F911D9695879597F90895F894FFCFB5
:10083000010000000000000200000000670000004E
:020840000000B6
:00000001FF
