:100000000C9446000C9465000C9465000C946500FB
:100010000C9465000C9465000C9465000C946500CC
:100020000C9465000C9465000C9465000C946500BC
:100030000C9465000C94A3000C9465000C9465006E
:100040000C9465000C9465000C9465000C9465009C
:100050000C9465000C9465000C9465000C9465008C
:100060000C9465000C9465000C9465000C9465007C
:100070000C9465000C9465000C9465000C9465006C
:100080000C9465000C9465000C94650011241FBE4F
:10009000CFEFD0E4DEBFCDBF11E0A0E0B1E0EAEBEE
:1000A000F4E000E00BBF02C007900D92A231B1074F
:1000B000D9F721E0A2E1B1E001C01D92A432B2075C
:1000C000E1F70E94E5010C945B020C940000CF93D1
:1000D000C82F8A3019F48DE00E9467008091C0001B
:1000E00085FFFCCFC093C60080E090E0CF910895DB
:1000F0008BE0809381008DE790E09093890080935E
:10010000880082E080936F00109285001092840036
:100110008091000190910101A0910201B091030131
:100120008093120190931301A0931401B0931501D1
:100130008FB780688FBF089510928100089581E085
:100140008093160108951F920F920FB60F921124FB
:100150000BB60F922F933F934F935F936F937F93C1
:100160008F939F93AF93BF93EF93FF93809112016F
:1001700090911301A0911401B09115010197A1096B
:10018000B1098093120190931301A0931401B093CD
:100190001501892B8A2B8B2B91F40E949F00809153
:1001A000000190910101A0910201B091030180939F
:1001B000120190931301A0931401B0931501FF91C4
:1001C000EF91BF91AF919F918F917F916F915F91CF
:1001D0004F913F912F910F900BBE0F900FBE0F903C
:1001E0001F901895609300017093010180930201A4
:1001F0009093030160931201709313018093140193
:1002000090931501089580911C0190911D018130FA
:10021000910571F030F08230910589F00397B1F0CB
:100220001CC081E090E090931D0180931C0119C0D7
:1002300082E090E090931D0180931C0112C083E046
:1002400090E090931D0180931C010BC081E090E031
:1002500090931D0180931C0104C010921D01109207
:100260001C0180911C0190911D018230910549F083
:100270008330910551F0019759F481E080931A0180
:10028000089582E080931A01089584E080931A0112
:1002900008958091200190912101009719F0019714
:1002A00041F00EC081E090E0909321018093200105
:1002B0000BC081E090E0909321018093200104C065
:1002C0001092210110922001809120019091210132
:1002D000019729F48091230180958093230108954B
:1002E0008091230190E0880F991F880F991F880F34
:1002F000991F90911A01892B90911E01892B80934F
:100300001B0108958091170190911801813091058A
:1003100071F030F082309105E1F0039761F13DC05A
:1003200081E090E090931801809317013AC080918A
:100330001901882339F082E090E0909318018093AE
:1003400017012FC081E090E090931801809317016E
:1003500028C080911901882339F083E090E09093C0
:100360001801809317011DC081E090E0909318015F
:100370008093170116C080911901882339F082E01B
:1003800090E090931801809317010BC081E090E0FA
:10039000909318018093170104C0109218011092D5
:1003A000170180911701909118018230910519F081
:1003B000039729F007C080E180931E0108951092F1
:1003C0001E01089510921E01089511B88FEF82B991
:1003D00084B915B861E070E080E090E00E94F2001E
:1003E0000E94780081E080931A01109223011092FC
:1003F0001D0110921C0110922101109220011092F7
:10040000180110921701C12CD12C76016894C1F803
:100410000F2EF8EE4F2EF3E05F2E612C712CF02D95
:100420000F2EFCE28F2E99249394A12CB12CF02D49
:1004300080B180958470809319018CE2881681E0E8
:100440009806A104B10428F00E940301812C912C8C
:10045000540188EE481683E058066104710428F0C0
:100460000E944901412C512C320182E0C816D1046E
:10047000E104F10428F00E948201C12CD12C760104
:100480000E947001809116018823E1F310921601F9
:100490008FEF881A980AA80AB80A8FEF481A580AE4
:1004A000680A780A8FEFC81AD80AE80AF80A809111
:0A04B0001B0185B9BDCFF894FFCF02
:1004BA0001000000000000020000000067000000C8
:0204CA00000030
:00000001FF
