:100000000C9446000C9465000C9465000C946500FB
:100010000C9465000C9465000C9465000C946500CC
:100020000C9465000C9465000C9465000C946500BC
:100030000C9465000C94A3000C9465000C9465006E
:100040000C9465000C9465000C9465000C9465009C
:100050000C9465000C9465000C9465000C9465008C
:100060000C9465000C9465000C9465000C9465007C
:100070000C9465000C9465000C9465000C9465006C
:100080000C9465000C9465000C94650011241FBE4F
:10009000CFEFD0E4DEBFCDBF11E0A0E0B1E0EAECED
:1000A000F5E000E00BBF02C007900D92A231B1074E
:1000B000D9F721E0A2E1B1E001C01D92A932B20757
:1000C000E1F70E9435020C94E3020C940000CF93F8
:1000D000C82F8A3019F48DE00E9467008091C0001B
:1000E00085FFFCCFC093C60080E090E0CF910895DB
:1000F0008BE0809381008DE790E09093890080935E
:10010000880082E080936F00109285001092840036
:100110008091000190910101A0910201B091030131
:100120008093120190931301A0931401B0931501D1
:100130008FB780688FBF089510928100089581E085
:100140008093160108951F920F920FB60F921124FB
:100150000BB60F922F933F934F935F936F937F93C1
:100160008F939F93AF93BF93EF93FF93809112016F
:1001700090911301A0911401B09115010197A1096B
:10018000B1098093120190931301A0931401B093CD
:100190001501892B8A2B8B2B91F40E949F00809153
:1001A000000190910101A0910201B091030180939F
:1001B000120190931301A0931401B0931501FF91C4
:1001C000EF91BF91AF919F918F917F916F915F91CF
:1001D0004F913F912F910F900BBE0F900FBE0F903C
:1001E0001F901895609300017093010180930201A4
:1001F0009093030160931201709313018093140193
:1002000090931501089580911C0190911D018130FA
:10021000910571F030F08230910589F00397B1F0CB
:100220001CC081E090E090931D0180931C0119C0D7
:1002300082E090E090931D0180931C0112C083E046
:1002400090E090931D0180931C010BC081E090E031
:1002500090931D0180931C0104C010921D01109207
:100260001C0180911C0190911D018230910549F083
:100270008330910551F0019759F481E080931A0180
:10028000089582E080931A01089584E080931A0112
:1002900008958091220190912301009719F0019710
:1002A00041F00EC081E090E0909323018093220101
:1002B0000BC081E090E0909323018093220104C061
:1002C000109223011092220180912201909123012A
:1002D000019729F480912501809580932501089547
:1002E00020912501822F817090E0880F991F880F3F
:1002F000991F880F991F90911A01892B90911E01C7
:10030000892B80931B01089580911701909118010A
:100310008130910571F030F082309105E1F0039762
:1003200061F13DC081E090E0909318018093170146
:100330003AC080911F01882339F082E090E09093C9
:100340001801809317012FC081E090E0909318016D
:100350008093170128C080911F01882339F083E022
:1003600090E090931801809317011DC081E090E008
:10037000909318018093170116C080911F01882364
:1003800039F082E090E090931801809317010BC040
:1003900081E090E0909318018093170104C01092BF
:1003A000180110921701809117019091180102977E
:1003B00021F480E180931E01089510921E0108959A
:1003C00080912601909127018130910571F030F0E4
:1003D0008230910501F1039729F12BC081E090E073
:1003E000909327018093260128C0809119018823CA
:1003F00039F082E090E090932701809326011DC0A0
:10040000809128018823C9F083E090E09093270130
:100410008093260112C081E090E0909327018093A1
:1004200026010BC081E090E0909327018093260184
:1004300004C010922701109226018091260190910C
:1004400027018230910519F0039739F008958091C2
:1004500021018F5F809321010895809121018230D5
:1004600018F08150809321010895CF93DF9300D03D
:1004700000D0CDB7DEB711B88FEF82B984B915B807
:1004800081E080931A011092250182E0809321017E
:1004900061E070E080E090E00E94F2000E9478004D
:1004A00010921D0110921C01109223011092220142
:1004B00010921801109217010F2EF4E64F2E512CB6
:1004C000612C712CF02D812C912C5401689481F8B1
:1004D0000F2EF8EECF2EF3E0DF2EE12CF12CF02DD5
:1004E0008CE291E0A0E0B0E089839A83AB83BC8387
:1004F00080B18095847080931F0180B18095827057
:100500008093280190B181E089278170809319013F
:1005100089819A81AB81BC818C329140A105B10562
:1005200030F00E94030119821A821B821C8288EE1D
:10053000C81683E0D806E104F10428F00E944901BE
:10054000C12CD12C760194E6491651046104710442
:1005500028F00E94E001412C512C320180912101B0
:1005600090E0A0E0B0E088169906AA06BB0628F045
:100570000E948401812C912C54010E947001809171
:1005800016018823E1F31092160189819A81AB81CB
:10059000BC810196A11DB11D89839A83AB83BC8365
:1005A0009FEFC91AD90AE90AF90AAFEF8A1A9A0A1B
:1005B000AA0ABA0ABFEF4B1A5B0A6B0A7B0A809140
:0A05C0001B0185B995CFF894FFCF19
:1005CA0001000000000000020000000067000000B7
:0205DA0000001F
:00000001FF
