:100000000C9446000C9465000C9465000C946500FB
:100010000C9465000C9465000C9465000C946500CC
:100020000C9465000C9465000C9465000C946500BC
:100030000C9465000C94A3000C9465000C9465006E
:100040000C9465000C9465000C9465000C9465009C
:100050000C9465000C9465000C9465000C9465008C
:100060000C9465000C9465000C9465000C9465007C
:100070000C9465000C9465000C9465000C9465006C
:100080000C9465000C9465000C94650011241FBE4F
:10009000CFEFD0E4DEBFCDBF11E0A0E0B1E0ECEEE9
:1000A000F4E000E00BBF02C007900D92A231B1074F
:1000B000D9F721E0A2E1B1E001C01D92A632B2075A
:1000C000E1F70E9411020C9474020C940000CF938B
:1000D000C82F8A3019F48DE00E9467008091C0001B
:1000E00085FFFCCFC093C60080E090E0CF910895DB
:1000F0008BE0809381008DE790E09093890080935E
:10010000880082E080936F00109285001092840036
:100110008091000190910101A0910201B091030131
:100120008093120190931301A0931401B0931501D1
:100130008FB780688FBF089510928100089581E085
:100140008093160108951F920F920FB60F921124FB
:100150000BB60F922F933F934F935F936F937F93C1
:100160008F939F93AF93BF93EF93FF93809112016F
:1001700090911301A0911401B09115010197A1096B
:10018000B1098093120190931301A0931401B093CD
:100190001501892B8A2B8B2B91F40E949F00809153
:1001A000000190910101A0910201B091030180939F
:1001B000120190931301A0931401B0931501FF91C4
:1001C000EF91BF91AF919F918F917F916F915F91CF
:1001D0004F913F912F910F900BBE0F900FBE0F903C
:1001E0001F901895609300017093010180930201A4
:1001F0009093030160931201709313018093140193
:1002000090931501089580911E0190911F018130F6
:10021000910571F018F00297F9F02DC081E08093FC
:100220001C0181E090E090931F0180931E0127C084
:1002300080911C01843020F081E080931C0103C078
:10024000880F80931C011092240182E090E090932B
:100250001F0180931E0113C080912401833038F068
:1002600081E090E090931F0180931E0108C08F5F92
:100270008093240104C010921F0110921E018091EE
:100280001E0190911F01029729F4809124018F5F34
:10029000809324010895809122019091230181305F
:1002A000910559F018F0029789F022C081E090E0A2
:1002B00090932301809322011FC01092210182E0BC
:1002C00090E0909323018093220116C08091210138
:1002D0008A3038F081E090E09093230180932201EE
:1002E0000BC082E090E0909323018093220104C030
:1002F00010922301109222018091220190912301FA
:100300008130910519F0029739F008958091250107
:100310008095809325010895809121018F5F8093BE
:10032000210108958091170190911801009719F00B
:10033000019741F00EC081E090E090931801809306
:1003400017010BC081E090E0909318018093170192
:1003500004C010921801109217018091170190911A
:1003600018010197A9F48091250190E0880F991F49
:10037000880F991F880F991F2091200140E1249F29
:100380009001112490911C01892B822B80931D01D7
:1003900008958091190190911A018130910559F0C9
:1003A00018F00297D1F02AC081E090E090931A01F2
:1003B0008093190123C080911B01882339F082E0CA
:1003C00090E090931A018093190118C081E090E0A9
:1003D00090931A018093190111C080911B01882309
:1003E00039F082E090E090931A018093190106C0E1
:1003F00081E090E090931A01809319018091190196
:1004000090911A018130910519F0029721F0089519
:100410001092200108958091200180958093200101
:10042000089511B88FEF82B984B915B862E070E011
:1004300080E090E00E94F2000E94780081E08093CA
:100440001C01109225011092200110921F011092A0
:100450001E01109223011092220110921801109295
:1004600017010F2EF4EF8F2E99249394A12CB12C09
:10047000F02D0F2EF6E9CF2ED12CE12CF12CF02D02
:1004800080B18095847080931B0186E9C816D104E1
:10049000E104F10428F00E940301C12CD12C760163
:1004A00084EF881681E09806A104B10428F00E9428
:1004B0004B01C12CD12C76010E94C9010E949201EE
:1004C000809116018823E1F31092160182E0C80E94
:1004D000D11CE11CF11C82E0880E911CA11CB11CF6
:0C04E00080911D0185B9CCCFF894FFCFAE
:1004EC000100000000000002000000006700000096
:0204FC000000FE
:00000001FF
