:100000000C9446000C9465000C9465000C946500FB
:100010000C9465000C9465000C9465000C946500CC
:100020000C9465000C9465000C9465000C946500BC
:100030000C9465000C94A3000C9465000C9465006E
:100040000C9465000C9465000C9465000C9465009C
:100050000C9465000C9465000C9465000C9465008C
:100060000C9465000C9465000C9465000C9465007C
:100070000C9465000C9465000C9465000C9465006C
:100080000C9465000C9465000C94650011241FBE4F
:10009000CFEFD0E4DEBFCDBF11E0A0E0B1E0E2E7FA
:1000A000F4E000E00BBF02C007900D92A231B1074F
:1000B000D9F721E0A2E1B1E001C01D92A632B2075A
:1000C000E1F70E94D4010C9437020C940000CF9306
:1000D000C82F8A3019F48DE00E9467008091C0001B
:1000E00085FFFCCFC093C60080E090E0CF910895DB
:1000F0008BE0809381008DE790E09093890080935E
:10010000880082E080936F00109285001092840036
:100110008091000190910101A0910201B091030131
:100120008093120190931301A0931401B0931501D1
:100130008FB780688FBF089510928100089581E085
:100140008093160108951F920F920FB60F921124FB
:100150000BB60F922F933F934F935F936F937F93C1
:100160008F939F93AF93BF93EF93FF93809112016F
:1001700090911301A0911401B09115010197A1096B
:10018000B1098093120190931301A0931401B093CD
:100190001501892B8A2B8B2B91F40E949F00809153
:1001A000000190910101A0910201B091030180939F
:1001B000120190931301A0931401B0931501FF91C4
:1001C000EF91BF91AF919F918F917F916F915F91CF
:1001D0004F913F912F910F900BBE0F900FBE0F903C
:1001E0001F901895609300017093010180930201A4
:1001F0009093030160931201709313018093140193
:1002000090931501089580911E0190911F01009710
:1002100019F0019759F01CC081E080931C0181E026
:1002200090E090931F0180931E01089580911C011E
:10023000843020F081E080931C0103C0880F8093FC
:100240001C0181E090E090931F0180931E010895AE
:1002500010921F0110921E01089580912201909129
:100260002301009719F0019741F00EC081E090E062
:1002700090932301809322010BC081E090E0909342
:1002800023018093220104C01092230110922201C5
:100290008091220190912301019729F480912501F9
:1002A0008095809325010895809117019091180100
:1002B000009719F0019741F00EC081E090E0909313
:1002C0001801809317010BC081E090E09093180112
:1002D0008093170104C010921801109217018091A9
:1002E0001701909118010197A9F48091250190E0E0
:1002F000880F991F880F991F880F991F209120013F
:1003000040E1249F9001112490911C01892B822BA4
:1003100080931D0108958091190190911A018130F7
:10032000910559F018F00297D1F02AC081E090E0D1
:1003300090931A018093190123C080911B01882397
:1003400039F082E090E090931A018093190118C06F
:1003500081E090E090931A018093190111C080917F
:100360001B01882339F082E090E090931A0180937A
:10037000190106C081E090E090931A018093190161
:100380008091190190911A018130910519F002971D
:1003900029F0089581E08093200108958091200143
:1003A000809580932001089511B88FEF82B984B9A8
:1003B00015B862E070E080E090E00E94F2000E94D8
:1003C000780081E080931C01109225018093200128
:1003D00010921F0110921E0110922301109222010F
:1003E00010921801109217010F2EF4EF8F2E9924FE
:1003F0009394A12CB12CF02D0F2EF6E9CF2ED12CF9
:10040000E12CF12CF02D80B18095847080931B013C
:1004100086E9C816D104E104F10428F00E94030122
:10042000C12CD12C760184EF881681E09806A104B6
:10043000B10428F00E942D01C12CD12C76010E941C
:100440008B010E945401809116018823E1F31092E0
:10045000160182E0C80ED11CE11CF11C82E0880E5E
:10046000911CA11CB11C80911D0185B9CCCFF894C1
:02047000FFCFBC
:100472000100000000000002000000006700000010
:02048200000078
:00000001FF
